{"abi":[{"type":"constructor","inputs":[],"stateMutability":"nonpayable"},{"type":"function","name":"UPGRADE_INTERFACE_VERSION","inputs":[],"outputs":[{"name":"","type":"string","internalType":"string"}],"stateMutability":"view"},{"type":"function","name":"acceptOwnership","inputs":[],"outputs":[],"stateMutability":"nonpayable"},{"type":"function","name":"beacon","inputs":[],"outputs":[{"name":"","type":"address","internalType":"address"}],"stateMutability":"view"},{"type":"function","name":"cancelCredits","inputs":[{"name":"creditId","type":"string","internalType":"string"},{"name":"amount","type":"uint256","internalType":"uint256"},{"name":"reason","type":"string","internalType":"string"},{"name":"owner","type":"address","internalType":"address"}],"outputs":[],"stateMutability":"nonpayable"},{"type":"function","name":"creditAddressToId","inputs":[{"name":"","type":"address","internalType":"address"}],"outputs":[{"name":"","type":"string","internalType":"string"}],"stateMutability":"view"},{"type":"function","name":"creditAddresses","inputs":[{"name":"","type":"uint256","internalType":"uint256"}],"outputs":[{"name":"","type":"address","internalType":"address"}],"stateMutability":"view"},{"type":"function","name":"creditIdToAddress","inputs":[{"name":"","type":"string","internalType":"string"}],"outputs":[{"name":"","type":"address","internalType":"address"}],"stateMutability":"view"},{"type":"function","name":"deployNewBeacon","inputs":[{"name":"creditTokenImpl","type":"address","internalType":"address"}],"outputs":[],"stateMutability":"nonpayable"},{"type":"function","name":"getAllCreditAddresses","inputs":[],"outputs":[{"name":"","type":"address[]","internalType":"address[]"}],"stateMutability":"view"},{"type":"function","name":"initialize","inputs":[{"name":"initialOwner","type":"address","internalType":"address"},{"name":"creditTokenImpl","type":"address","internalType":"address"}],"outputs":[],"stateMutability":"nonpayable"},{"type":"function","name":"issueCredits","inputs":[{"name":"creditId","type":"string","internalType":"string"},{"name":"amount","type":"uint256","internalType":"uint256"},{"name":"to","type":"address","internalType":"address"}],"outputs":[],"stateMutability":"nonpayable"},{"type":"function","name":"owner","inputs":[],"outputs":[{"name":"","type":"address","internalType":"address"}],"stateMutability":"view"},{"type":"function","name":"pause","inputs":[],"outputs":[],"stateMutability":"nonpayable"},{"type":"function","name":"pauseCredit","inputs":[{"name":"creditId","type":"string","internalType":"string"}],"outputs":[],"stateMutability":"nonpayable"},{"type":"function","name":"paused","inputs":[],"outputs":[{"name":"","type":"bool","internalType":"bool"}],"stateMutability":"view"},{"type":"function","name":"pendingOwner","inputs":[],"outputs":[{"name":"","type":"address","internalType":"address"}],"stateMutability":"view"},{"type":"function","name":"proxiableUUID","inputs":[],"outputs":[{"name":"","type":"bytes32","internalType":"bytes32"}],"stateMutability":"view"},{"type":"function","name":"renounceOwnership","inputs":[],"outputs":[],"stateMutability":"nonpayable"},{"type":"function","name":"transferOwnership","inputs":[{"name":"newOwner","type":"address","internalType":"address"}],"outputs":[],"stateMutability":"nonpayable"},{"type":"function","name":"unpause","inputs":[],"outputs":[],"stateMutability":"nonpayable"},{"type":"function","name":"unpauseCredit","inputs":[{"name":"creditId","type":"string","internalType":"string"}],"outputs":[],"stateMutability":"nonpayable"},{"type":"function","name":"upgradeBeacon","inputs":[{"name":"creditTokenImpl","type":"address","internalType":"address"}],"outputs":[],"stateMutability":"nonpayable"},{"type":"function","name":"upgradeToAndCall","inputs":[{"name":"newImplementation","type":"address","internalType":"address"},{"name":"data","type":"bytes","internalType":"bytes"}],"outputs":[],"stateMutability":"payable"},{"type":"event","name":"Canceled","inputs":[{"name":"amount","type":"uint256","indexed":false,"internalType":"uint256"},{"name":"reason","type":"string","indexed":false,"internalType":"string"},{"name":"creditId","type":"string","indexed":true,"internalType":"string"},{"name":"account","type":"address","indexed":true,"internalType":"address"}],"anonymous":false},{"type":"event","name":"Initialized","inputs":[{"name":"version","type":"uint64","indexed":false,"internalType":"uint64"}],"anonymous":false},{"type":"event","name":"Issued","inputs":[{"name":"creditId","type":"string","indexed":true,"internalType":"string"},{"name":"amount","type":"uint256","indexed":false,"internalType":"uint256"},{"name":"to","type":"address","indexed":true,"internalType":"address"},{"name":"creditTokenAddress","type":"address","indexed":true,"internalType":"address"}],"anonymous":false},{"type":"event","name":"OwnershipTransferred","inputs":[{"name":"previousOwner","type":"address","indexed":true,"internalType":"address"},{"name":"newOwner","type":"address","indexed":true,"internalType":"address"}],"anonymous":false},{"type":"event","name":"Paused","inputs":[{"name":"account","type":"address","indexed":false,"internalType":"address"}],"anonymous":false},{"type":"event","name":"Unpaused","inputs":[{"name":"account","type":"address","indexed":false,"internalType":"address"}],"anonymous":false},{"type":"event","name":"Upgraded","inputs":[{"name":"implementation","type":"address","indexed":true,"internalType":"address"}],"anonymous":false},{"type":"error","name":"AddressEmptyCode","inputs":[{"name":"target","type":"address","internalType":"address"}]},{"type":"error","name":"CreditDoesNotExist","inputs":[]},{"type":"error","name":"ERC1967InvalidImplementation","inputs":[{"name":"implementation","type":"address","internalType":"address"}]},{"type":"error","name":"ERC1967NonPayable","inputs":[]},{"type":"error","name":"EmptyReason","inputs":[]},{"type":"error","name":"EnforcedPause","inputs":[]},{"type":"error","name":"ExpectedPause","inputs":[]},{"type":"error","name":"FailedInnerCall","inputs":[]},{"type":"error","name":"InvalidInitialization","inputs":[]},{"type":"error","name":"MaxLength","inputs":[]},{"type":"error","name":"NoFactoryIssuance","inputs":[]},{"type":"error","name":"NoSelfIssuance","inputs":[]},{"type":"error","name":"NotInitializing","inputs":[]},{"type":"error","name":"NotPendingOwner","inputs":[]},{"type":"error","name":"OwnableInvalidOwner","inputs":[{"name":"owner","type":"address","internalType":"address"}]},{"type":"error","name":"OwnableUnauthorizedAccount","inputs":[{"name":"account","type":"address","internalType":"address"}]},{"type":"error","name":"UUPSUnauthorizedCallContext","inputs":[]},{"type":"error","name":"UUPSUnsupportedProxiableUUID","inputs":[{"name":"slot","type":"bytes32","internalType":"bytes32"}]},{"type":"error","name":"ZeroAddress","inputs":[]},{"type":"error","name":"ZeroAmount","inputs":[]}],"bytecode":{"object":"0x60a060405230608052348015610013575f5ffd5b5061001c610021565b6100d3565b7ff0c57e16840df040f15088dc2f81fe391c3923bec73e23a9662efc9c229c6a00805468010000000000000000900460ff16156100715760405163f92ee8a960e01b815260040160405180910390fd5b80546001600160401b03908116146100d05780546001600160401b0319166001600160401b0390811782556040519081527fc7f505b2f371ae2175ee4913f4499e1f2633a7b5936321eed1cdaeb6115181d29060200160405180910390a15b50565b6080516124d26100f95f395f818161100b01528181611034015261117801526124d25ff3fe60806040526004361061013c575f3560e01c8063715018a6116100b3578063ad3cb1cc1161006d578063ad3cb1cc14610378578063d0fc205c146103a8578063d69e3ba6146103c7578063e30c397814610406578063f2fde38b14610425578063f319969514610444575f5ffd5b8063715018a6146102c257806378017977146102d657806379ba5097146102f55780638456cb59146103095780638da5cb5b1461031d5780639c1e1e4d14610359575f5ffd5b8063485cc95511610104578063485cc955146101ea5780634f1ef2861461020957806352d1902d1461021c57806353a612591461023e57806359659e901461025d5780635c975abb14610294575f5ffd5b806317528e031461014057806317d4ecaa1461016a5780631bce45831461018b5780633cc42c4c146101aa5780633f4ba83a146101d6575b5f5ffd5b34801561014b575f5ffd5b50610154610463565b6040516101619190611528565b60405180910390f35b348015610175575f5ffd5b506101896101843660046115d3565b6104c3565b005b348015610196575f5ffd5b506101896101a536600461165b565b61060d565b3480156101b5575f5ffd5b506101c96101c436600461165b565b61067e565b60405161016191906116a2565b3480156101e1575f5ffd5b50610189610715565b3480156101f5575f5ffd5b506101896102043660046116b4565b610727565b610189610217366004611770565b6108a7565b348015610227575f5ffd5b506102306108c6565b604051908152602001610161565b348015610249575f5ffd5b506101896102583660046117ce565b6108e1565b348015610268575f5ffd5b5060035461027c906001600160a01b031681565b6040516001600160a01b039091168152602001610161565b34801561029f575f5ffd5b505f51602061247d5f395f51905f525460ff166040519015158152602001610161565b3480156102cd575f5ffd5b50610189610932565b3480156102e1575f5ffd5b506101896102f03660046117ce565b610943565b348015610300575f5ffd5b50610189610994565b348015610314575f5ffd5b506101896109e6565b348015610328575f5ffd5b507f9016d09d72d40fdae2fd8ceac6b6234c7706214fd39c1cd1e609a0528c199300546001600160a01b031661027c565b348015610364575f5ffd5b5061018961037336600461165b565b6109f6565b348015610383575f5ffd5b506101c9604051806040016040528060058152602001640352e302e360dc1b81525081565b3480156103b3575f5ffd5b5061027c6103c236600461180d565b610a6b565b3480156103d2575f5ffd5b5061027c6103e1366004611824565b80516020818301810180515f825292820191909301209152546001600160a01b031681565b348015610411575f5ffd5b5060045461027c906001600160a01b031681565b348015610430575f5ffd5b5061018961043f36600461165b565b610a93565b34801561044f575f5ffd5b5061018961045e366004611871565b610abd565b606060028054806020026020016040519081016040528092919081815260200182805480156104b957602002820191905f5260205f20905b81546001600160a01b0316815260019091019060200180831161049b575b5050505050905090565b6104cb610e29565b6104d3610e89565b6104dc84610eb9565b61051e83838080601f0160208091040260200160405190810160405280939291908181526020018383808284375f920191909152506101009250610edc915050565b5f82900361053f5760405163db72b02360e01b815260040160405180910390fd5b6105498686610efe565b6040516315f5a0b160e21b8152600481018690526001600160a01b03838116602483015291909116906357d682c4906044015f604051808303815f87803b158015610592575f5ffd5b505af11580156105a4573d5f5f3e3d5ffd5b50505050806001600160a01b031686866040516105c29291906118ca565b60405180910390207fc8ded87dca1c06d31a7c5e58b55909b294b937bc640451a37f7ca84222a134768686866040516105fd93929190611901565b60405180910390a3505050505050565b610615610e29565b61061e81610f51565b600354604051631b2ce7f360e11b81526001600160a01b038381166004830152909116908190633659cfe6906024015f604051808303815f87803b158015610664575f5ffd5b505af1158015610676573d5f5f3e3d5ffd5b505050505050565b60016020525f9081526040902080546106969061191a565b80601f01602080910402602001604051908101604052809291908181526020018280546106c29061191a565b801561070d5780601f106106e45761010080835404028352916020019161070d565b820191905f5260205f20905b8154815290600101906020018083116106f057829003601f168201915b505050505081565b61071d610e29565b610725610f78565b565b7ff0c57e16840df040f15088dc2f81fe391c3923bec73e23a9662efc9c229c6a008054600160401b810460ff16159067ffffffffffffffff165f8115801561076c5750825b90505f8267ffffffffffffffff1660011480156107885750303b155b905081158015610796575080155b156107b45760405163f92ee8a960e01b815260040160405180910390fd5b845467ffffffffffffffff1916600117855583156107de57845460ff60401b1916600160401b1785555b6107e787610fd7565b6107ef610fe8565b6107f7610ff8565b5f86306040516108069061150e565b6001600160a01b03928316815291166020820152604001604051809103905ff080158015610836573d5f5f3e3d5ffd5b50600380546001600160a01b0319166001600160a01b039290921691909117905550831561089e57845460ff60401b19168555604051600181527fc7f505b2f371ae2175ee4913f4499e1f2633a7b5936321eed1cdaeb6115181d29060200160405180910390a15b50505050505050565b6108af611000565b6108b8826110a4565b6108c282826110ac565b5050565b5f6108cf61116d565b505f51602061245d5f395f51905f5290565b6108e9610e29565b6108f1610e89565b6108fb8282610efe565b6001600160a01b0316638456cb596040518163ffffffff1660e01b81526004015f604051808303815f87803b158015610664575f5ffd5b61093a610e29565b6107255f6111b6565b61094b610e29565b610953610e89565b61095d8282610efe565b6001600160a01b0316633f4ba83a6040518163ffffffff1660e01b81526004015f604051808303815f87803b158015610664575f5ffd5b6004546001600160a01b031633146109bf57604051630614e5c760e21b815260040160405180910390fd5b6004546109d4906001600160a01b03166111b6565b600480546001600160a01b0319169055565b6109ee610e29565b610725611226565b6109fe610e29565b610a0781610f51565b5f8130604051610a169061150e565b6001600160a01b03928316815291166020820152604001604051809103905ff080158015610a46573d5f5f3e3d5ffd5b50600380546001600160a01b0319166001600160a01b03929092169190911790555050565b60028181548110610a7a575f80fd5b5f918252602090912001546001600160a01b0316905081565b610a9b610e29565b600480546001600160a01b0319166001600160a01b0392909216919091179055565b610ac5610e29565b610acd610e89565b610ad681610f51565b610adf82610eb9565b306001600160a01b03821603610b08576040516362b2197160e11b815260040160405180910390fd5b6001600160a01b0381165f9081526001602052604090208054610b2a9061191a565b159050610b4a5760405163096a9ddb60e21b815260040160405180910390fd5b5f5f8585604051610b5c9291906118ca565b908152604051908190036020019020546001600160a01b031690508015610c3d576040516340c10f1960e01b81526001600160a01b038381166004830152602482018590528216906340c10f19906044015f604051808303815f87803b158015610bc4575f5ffd5b505af1158015610bd6573d5f5f3e3d5ffd5b50505050806001600160a01b0316826001600160a01b03168686604051610bfe9291906118ca565b604051908190038120868252907f30fe01827ac796747c8d3e64aedb0619c3ec05c3679d3dc86b6c6e88977368469060200160405180910390a4610e22565b5f308686604051602401610c5393929190611952565b60408051601f198184030181529181526020820180516001600160e01b03166379ccf11760e11b17905260035490519192505f916001600160a01b03909116908390610c9e9061151b565b610ca9929190611976565b604051809103905ff080158015610cc2573d5f5f3e3d5ffd5b5090505f819050805f8989604051610cdb9291906118ca565b908152604080516020928190038301902080546001600160a01b0319166001600160a01b039485161790559183165f908152600190915220610d1e888a836119dd565b50600280546001810182555f919091527f405787fa12a823e0f2b7631cc41b3ba8828b3321ca811111fa75cd3aa3bb5ace0180546001600160a01b0319166001600160a01b038381169182179092556040516340c10f1960e01b8152918716600483015260248201889052906340c10f19906044015f604051808303815f87803b158015610daa575f5ffd5b505af1158015610dbc573d5f5f3e3d5ffd5b50505050806001600160a01b0316856001600160a01b03168989604051610de49291906118ca565b604051908190038120898252907f30fe01827ac796747c8d3e64aedb0619c3ec05c3679d3dc86b6c6e88977368469060200160405180910390a45050505b5050505050565b33610e5b7f9016d09d72d40fdae2fd8ceac6b6234c7706214fd39c1cd1e609a0528c199300546001600160a01b031690565b6001600160a01b0316146107255760405163118cdaa760e01b81523360048201526024015b60405180910390fd5b5f51602061247d5f395f51905f525460ff16156107255760405163d93c066560e01b815260040160405180910390fd5b805f03610ed957604051631f2a200560e01b815260040160405180910390fd5b50565b80825111156108c257604051631dfb275f60e21b815260040160405180910390fd5b5f5f5f8484604051610f119291906118ca565b908152604051908190036020019020546001600160a01b0316905080610f4a5760405163dc5ccecd60e01b815260040160405180910390fd5b9392505050565b6001600160a01b038116610ed95760405163d92e233d60e01b815260040160405180910390fd5b610f8061126e565b5f51602061247d5f395f51905f52805460ff191681557f5db9ee0a495bf2e6ff9c91a7834c1ba4fdd244a5e8aa4e537bd38aeae4b073aa335b6040516001600160a01b03909116815260200160405180910390a150565b610fdf61129d565b610ed9816112e6565b610ff061129d565b610725611320565b61072561129d565b306001600160a01b037f000000000000000000000000000000000000000000000000000000000000000016148061108657507f00000000000000000000000000000000000000000000000000000000000000006001600160a01b031661107a5f51602061245d5f395f51905f52546001600160a01b031690565b6001600160a01b031614155b156107255760405163703e46dd60e11b815260040160405180910390fd5b610ed9610e29565b816001600160a01b03166352d1902d6040518163ffffffff1660e01b8152600401602060405180830381865afa925050508015611106575060408051601f3d908101601f1916820190925261110391810190611a97565b60015b61112e57604051634c9c8ce360e01b81526001600160a01b0383166004820152602401610e80565b5f51602061245d5f395f51905f52811461115e57604051632a87526960e21b815260048101829052602401610e80565b6111688383611340565b505050565b306001600160a01b037f000000000000000000000000000000000000000000000000000000000000000016146107255760405163703e46dd60e11b815260040160405180910390fd5b7f9016d09d72d40fdae2fd8ceac6b6234c7706214fd39c1cd1e609a0528c19930080546001600160a01b031981166001600160a01b03848116918217845560405192169182907f8be0079c531659141344cd1fd0a4f28419497f9722a3daafe3b4186f6b6457e0905f90a3505050565b61122e610e89565b5f51602061247d5f395f51905f52805460ff191660011781557f62e78cea01bee320cd4e420270b5ea74000d11b0c9f74754ebdbfc544b05a25833610fb9565b5f51602061247d5f395f51905f525460ff1661072557604051638dfc202b60e01b815260040160405180910390fd5b7ff0c57e16840df040f15088dc2f81fe391c3923bec73e23a9662efc9c229c6a0054600160401b900460ff1661072557604051631afcd79f60e31b815260040160405180910390fd5b6112ee61129d565b6001600160a01b03811661131757604051631e4fbdf760e01b81525f6004820152602401610e80565b610ed9816111b6565b61132861129d565b5f51602061247d5f395f51905f52805460ff19169055565b61134982611395565b6040516001600160a01b038316907fbc7cd75a20ee27fd9adebab32041f755214dbc6bffa90cc0225b39da2e5c2d3b905f90a280511561138d5761116882826113f8565b6108c261146a565b806001600160a01b03163b5f036113ca57604051634c9c8ce360e01b81526001600160a01b0382166004820152602401610e80565b5f51602061245d5f395f51905f5280546001600160a01b0319166001600160a01b0392909216919091179055565b60605f5f846001600160a01b0316846040516114149190611aae565b5f60405180830381855af49150503d805f811461144c576040519150601f19603f3d011682016040523d82523d5f602084013e611451565b606091505b5091509150611461858383611489565b95945050505050565b34156107255760405163b398979f60e01b815260040160405180910390fd5b60608261149e57611499826114e5565b610f4a565b81511580156114b557506001600160a01b0384163b155b156114de57604051639996b31560e01b81526001600160a01b0385166004820152602401610e80565b5092915050565b8051156114f55780518082602001fd5b604051630a12f52160e11b815260040160405180910390fd5b61042180611ac583390190565b61057780611ee683390190565b602080825282518282018190525f918401906040840190835b818110156115685783516001600160a01b0316835260209384019390920191600101611541565b509095945050505050565b5f5f83601f840112611583575f5ffd5b50813567ffffffffffffffff81111561159a575f5ffd5b6020830191508360208285010111156115b1575f5ffd5b9250929050565b80356001600160a01b03811681146115ce575f5ffd5b919050565b5f5f5f5f5f5f608087890312156115e8575f5ffd5b863567ffffffffffffffff8111156115fe575f5ffd5b61160a89828a01611573565b90975095505060208701359350604087013567ffffffffffffffff811115611630575f5ffd5b61163c89828a01611573565b909450925061164f9050606088016115b8565b90509295509295509295565b5f6020828403121561166b575f5ffd5b610f4a826115b8565b5f81518084528060208401602086015e5f602082860101526020601f19601f83011685010191505092915050565b602081525f610f4a6020830184611674565b5f5f604083850312156116c5575f5ffd5b6116ce836115b8565b91506116dc602084016115b8565b90509250929050565b634e487b7160e01b5f52604160045260245ffd5b5f5f67ffffffffffffffff841115611713576117136116e5565b50604051601f19601f85018116603f0116810181811067ffffffffffffffff82111715611742576117426116e5565b604052838152905080828401851015611759575f5ffd5b838360208301375f60208583010152509392505050565b5f5f60408385031215611781575f5ffd5b61178a836115b8565b9150602083013567ffffffffffffffff8111156117a5575f5ffd5b8301601f810185136117b5575f5ffd5b6117c4858235602084016116f9565b9150509250929050565b5f5f602083850312156117df575f5ffd5b823567ffffffffffffffff8111156117f5575f5ffd5b61180185828601611573565b90969095509350505050565b5f6020828403121561181d575f5ffd5b5035919050565b5f60208284031215611834575f5ffd5b813567ffffffffffffffff81111561184a575f5ffd5b8201601f8101841361185a575f5ffd5b611869848235602084016116f9565b949350505050565b5f5f5f5f60608587031215611884575f5ffd5b843567ffffffffffffffff81111561189a575f5ffd5b6118a687828801611573565b909550935050602085013591506118bf604086016115b8565b905092959194509250565b818382375f9101908152919050565b81835281816020850137505f828201602090810191909152601f909101601f19169091010190565b838152604060208201525f6114616040830184866118d9565b600181811c9082168061192e57607f821691505b60208210810361194c57634e487b7160e01b5f52602260045260245ffd5b50919050565b6001600160a01b03841681526040602082018190525f9061146190830184866118d9565b6001600160a01b03831681526040602082018190525f9061186990830184611674565b601f82111561116857805f5260205f20601f840160051c810160208510156119be5750805b601f840160051c820191505b81811015610e22575f81556001016119ca565b67ffffffffffffffff8311156119f5576119f56116e5565b611a0983611a03835461191a565b83611999565b5f601f841160018114611a3a575f8515611a235750838201355b5f19600387901b1c1916600186901b178355610e22565b5f83815260208120601f198716915b82811015611a695786850135825560209485019460019092019101611a49565b5086821015611a85575f1960f88860031b161c19848701351681555b505060018560011b0183555050505050565b5f60208284031215611aa7575f5ffd5b5051919050565b5f82518060208501845e5f92019182525091905056fe608060405234801561000f575f5ffd5b5060405161042138038061042183398101604081905261002e9161015f565b806001600160a01b03811661005d57604051631e4fbdf760e01b81525f60048201526024015b60405180910390fd5b61006681610077565b50610070826100c6565b5050610190565b5f80546001600160a01b038381166001600160a01b0319831681178455604051919092169283917f8be0079c531659141344cd1fd0a4f28419497f9722a3daafe3b4186f6b6457e09190a35050565b806001600160a01b03163b5f036100fb5760405163211eb15960e21b81526001600160a01b0382166004820152602401610054565b600180546001600160a01b0319166001600160a01b0383169081179091556040517fbc7cd75a20ee27fd9adebab32041f755214dbc6bffa90cc0225b39da2e5c2d3b905f90a250565b80516001600160a01b038116811461015a575f5ffd5b919050565b5f5f60408385031215610170575f5ffd5b61017983610144565b915061018760208401610144565b90509250929050565b6102848061019d5f395ff3fe608060405234801561000f575f5ffd5b5060043610610055575f3560e01c80633659cfe6146100595780635c60da1b1461006e578063715018a6146100975780638da5cb5b1461009f578063f2fde38b146100af575b5f5ffd5b61006c610067366004610221565b6100c2565b005b6001546001600160a01b03165b6040516001600160a01b03909116815260200160405180910390f35b61006c6100d6565b5f546001600160a01b031661007b565b61006c6100bd366004610221565b6100e9565b6100ca610128565b6100d381610154565b50565b6100de610128565b6100e75f6101d2565b565b6100f1610128565b6001600160a01b03811661011f57604051631e4fbdf760e01b81525f60048201526024015b60405180910390fd5b6100d3816101d2565b5f546001600160a01b031633146100e75760405163118cdaa760e01b8152336004820152602401610116565b806001600160a01b03163b5f036101895760405163211eb15960e21b81526001600160a01b0382166004820152602401610116565b600180546001600160a01b0319166001600160a01b0383169081179091556040517fbc7cd75a20ee27fd9adebab32041f755214dbc6bffa90cc0225b39da2e5c2d3b905f90a250565b5f80546001600160a01b038381166001600160a01b0319831681178455604051919092169283917f8be0079c531659141344cd1fd0a4f28419497f9722a3daafe3b4186f6b6457e09190a35050565b5f60208284031215610231575f5ffd5b81356001600160a01b0381168114610247575f5ffd5b939250505056fea26469706673582212203a347609cb05985b68c63f07feffcb632d7506ef257ced194c754e0f24f0299964736f6c634300081b003360a060405260405161057738038061057783398101604081905261002291610354565b61002c828261003e565b506001600160a01b0316608052610445565b610047826100fb565b6040516001600160a01b038316907f1cf3b03a6cf19fa2baba4df148e9dcabedea7f8a5c07840e207e5c089be95d3e905f90a28051156100ef576100ea826001600160a01b0316635c60da1b6040518163ffffffff1660e01b8152600401602060405180830381865afa1580156100c0573d5f5f3e3d5ffd5b505050506040513d601f19601f820116820180604052508101906100e49190610416565b82610209565b505050565b6100f761027c565b5050565b806001600160a01b03163b5f0361013557604051631933b43b60e21b81526001600160a01b03821660048201526024015b60405180910390fd5b807fa3f0ad74e5423aebfd80d3ef4346578335a9a72aeaee59ff6cb3582b35133d5080546001600160a01b0319166001600160a01b0392831617905560408051635c60da1b60e01b815290515f92841691635c60da1b9160048083019260209291908290030181865afa1580156101ae573d5f5f3e3d5ffd5b505050506040513d601f19601f820116820180604052508101906101d29190610416565b9050806001600160a01b03163b5f036100f757604051634c9c8ce360e01b81526001600160a01b038216600482015260240161012c565b60605f5f846001600160a01b031684604051610225919061042f565b5f60405180830381855af49150503d805f811461025d576040519150601f19603f3d011682016040523d82523d5f602084013e610262565b606091505b50909250905061027385838361029d565b95945050505050565b341561029b5760405163b398979f60e01b815260040160405180910390fd5b565b6060826102b2576102ad826102fc565b6102f5565b81511580156102c957506001600160a01b0384163b155b156102f257604051639996b31560e01b81526001600160a01b038516600482015260240161012c565b50805b9392505050565b80511561030c5780518082602001fd5b604051630a12f52160e11b815260040160405180910390fd5b80516001600160a01b038116811461033b575f5ffd5b919050565b634e487b7160e01b5f52604160045260245ffd5b5f5f60408385031215610365575f5ffd5b61036e83610325565b60208401519092506001600160401b03811115610389575f5ffd5b8301601f81018513610399575f5ffd5b80516001600160401b038111156103b2576103b2610340565b604051601f8201601f19908116603f011681016001600160401b03811182821017156103e0576103e0610340565b6040528181528282016020018710156103f7575f5ffd5b8160208401602083015e5f602083830101528093505050509250929050565b5f60208284031215610426575f5ffd5b6102f582610325565b5f82518060208501845e5f920191825250919050565b60805161011b61045c5f395f601d015261011b5ff3fe6080604052600a600c565b005b60186014601a565b609d565b565b5f7f00000000000000000000000000000000000000000000000000000000000000006001600160a01b0316635c60da1b6040518163ffffffff1660e01b8152600401602060405180830381865afa1580156076573d5f5f3e3d5ffd5b505050506040513d601f19601f820116820180604052508101906098919060ba565b905090565b365f5f375f5f365f845af43d5f5f3e80801560b6573d5ff35b3d5ffd5b5f6020828403121560c9575f5ffd5b81516001600160a01b038116811460de575f5ffd5b939250505056fea2646970667358221220cc6700ef8311f9efb9efe2e33da91138818294b050ded687597e3507cb67df6764736f6c634300081b0033360894a13ba1a3210667c828492db98dca3e2076cc3735a920a3ca505d382bbccd5ed15c6e187e77e9aee88184c21f4f2182ab5827cb3b7e07fbedcd63f03300a2646970667358221220de3b89c47dfe030e89e9b1111bb92f4b9e025e95bbb55ca794835d5db2aab2c964736f6c634300081b0033","linkReferences":{}},"methodIdentifiers":{"UPGRADE_INTERFACE_VERSION()":"ad3cb1cc","acceptOwnership()":"79ba5097","beacon()":"59659e90","cancelCredits(string,uint256,string,address)":"17d4ecaa","creditAddressToId(address)":"3cc42c4c","creditAddresses(uint256)":"d0fc205c","creditIdToAddress(string)":"d69e3ba6","deployNewBeacon(address)":"9c1e1e4d","getAllCreditAddresses()":"17528e03","initialize(address,address)":"485cc955","issueCredits(string,uint256,address)":"f3199695","owner()":"8da5cb5b","pause()":"8456cb59","pauseCredit(string)":"53a61259","paused()":"5c975abb","pendingOwner()":"e30c3978","proxiableUUID()":"52d1902d","renounceOwnership()":"715018a6","transferOwnership(address)":"f2fde38b","unpause()":"3f4ba83a","unpauseCredit(string)":"78017977","upgradeBeacon(address)":"1bce4583","upgradeToAndCall(address,bytes)":"4f1ef286"},"storageLayout":{"storage":[{"astId":42176,"contract":"src/CreditTokenFactory.sol:CreditTokenFactory","label":"creditIdToAddress","offset":0,"slot":"0","type":"t_mapping(t_string_memory_ptr,t_address)"},{"astId":42181,"contract":"src/CreditTokenFactory.sol:CreditTokenFactory","label":"creditAddressToId","offset":0,"slot":"1","type":"t_mapping(t_address,t_string_storage)"},{"astId":42185,"contract":"src/CreditTokenFactory.sol:CreditTokenFactory","label":"creditAddresses","offset":0,"slot":"2","type":"t_array(t_address)dyn_storage"},{"astId":42188,"contract":"src/CreditTokenFactory.sol:CreditTokenFactory","label":"beacon","offset":0,"slot":"3","type":"t_address"},{"astId":42191,"contract":"src/CreditTokenFactory.sol:CreditTokenFactory","label":"pendingOwner","offset":0,"slot":"4","type":"t_address"}],"types":{"t_address":{"encoding":"inplace","label":"address","numberOfBytes":"20"},"t_array(t_address)dyn_storage":{"encoding":"dynamic_array","label":"address[]","numberOfBytes":"32","base":"t_address"},"t_mapping(t_address,t_string_storage)":{"encoding":"mapping","key":"t_address","label":"mapping(address => string)","numberOfBytes":"32","value":"t_string_storage"},"t_mapping(t_string_memory_ptr,t_address)":{"encoding":"mapping","key":"t_string_memory_ptr","label":"mapping(string => address)","numberOfBytes":"32","value":"t_address"},"t_string_memory_ptr":{"encoding":"bytes","label":"string","numberOfBytes":"32"},"t_string_storage":{"encoding":"bytes","label":"string","numberOfBytes":"32"}}},"id":44}