{"abi":[{"type":"constructor","inputs":[],"stateMutability":"nonpayable"},{"type":"function","name":"allowance","inputs":[{"name":"owner","type":"address","internalType":"address"},{"name":"spender","type":"address","internalType":"address"}],"outputs":[{"name":"","type":"uint256","internalType":"uint256"}],"stateMutability":"view"},{"type":"function","name":"approve","inputs":[{"name":"spender","type":"address","internalType":"address"},{"name":"value","type":"uint256","internalType":"uint256"}],"outputs":[{"name":"","type":"bool","internalType":"bool"}],"stateMutability":"nonpayable"},{"type":"function","name":"balanceOf","inputs":[{"name":"account","type":"address","internalType":"address"}],"outputs":[{"name":"","type":"uint256","internalType":"uint256"}],"stateMutability":"view"},{"type":"function","name":"cancel","inputs":[{"name":"amount","type":"uint256","internalType":"uint256"},{"name":"account","type":"address","internalType":"address"}],"outputs":[],"stateMutability":"nonpayable"},{"type":"function","name":"decimals","inputs":[],"outputs":[{"name":"","type":"uint8","internalType":"uint8"}],"stateMutability":"view"},{"type":"function","name":"initialize","inputs":[{"name":"parentFactory","type":"address","internalType":"address"},{"name":"creditId","type":"string","internalType":"string"}],"outputs":[],"stateMutability":"nonpayable"},{"type":"function","name":"mint","inputs":[{"name":"to","type":"address","internalType":"address"},{"name":"amount","type":"uint256","internalType":"uint256"}],"outputs":[],"stateMutability":"nonpayable"},{"type":"function","name":"name","inputs":[],"outputs":[{"name":"","type":"string","internalType":"string"}],"stateMutability":"view"},{"type":"function","name":"owner","inputs":[],"outputs":[{"name":"","type":"address","internalType":"address"}],"stateMutability":"view"},{"type":"function","name":"pause","inputs":[],"outputs":[],"stateMutability":"nonpayable"},{"type":"function","name":"paused","inputs":[],"outputs":[{"name":"","type":"bool","internalType":"bool"}],"stateMutability":"view"},{"type":"function","name":"renounceOwnership","inputs":[],"outputs":[],"stateMutability":"nonpayable"},{"type":"function","name":"retire","inputs":[{"name":"amount","type":"uint256","internalType":"uint256"},{"name":"beneficiary","type":"address","internalType":"address"},{"name":"beneficiaryName","type":"string","internalType":"string"},{"name":"message","type":"string","internalType":"string"}],"outputs":[],"stateMutability":"nonpayable"},{"type":"function","name":"retireFrom","inputs":[{"name":"amount","type":"uint256","internalType":"uint256"},{"name":"beneficiary","type":"address","internalType":"address"},{"name":"beneficiaryName","type":"string","internalType":"string"},{"name":"message","type":"string","internalType":"string"},{"name":"account","type":"address","internalType":"address"}],"outputs":[],"stateMutability":"nonpayable"},{"type":"function","name":"symbol","inputs":[],"outputs":[{"name":"","type":"string","internalType":"string"}],"stateMutability":"view"},{"type":"function","name":"totalSupply","inputs":[],"outputs":[{"name":"","type":"uint256","internalType":"uint256"}],"stateMutability":"view"},{"type":"function","name":"transfer","inputs":[{"name":"to","type":"address","internalType":"address"},{"name":"amount","type":"uint256","internalType":"uint256"}],"outputs":[{"name":"","type":"bool","internalType":"bool"}],"stateMutability":"nonpayable"},{"type":"function","name":"transferFrom","inputs":[{"name":"from","type":"address","internalType":"address"},{"name":"to","type":"address","internalType":"address"},{"name":"amount","type":"uint256","internalType":"uint256"}],"outputs":[{"name":"","type":"bool","internalType":"bool"}],"stateMutability":"nonpayable"},{"type":"function","name":"transferOwnership","inputs":[{"name":"newOwner","type":"address","internalType":"address"}],"outputs":[],"stateMutability":"nonpayable"},{"type":"function","name":"unpause","inputs":[],"outputs":[],"stateMutability":"nonpayable"},{"type":"event","name":"Approval","inputs":[{"name":"owner","type":"address","indexed":true,"internalType":"address"},{"name":"spender","type":"address","indexed":true,"internalType":"address"},{"name":"value","type":"uint256","indexed":false,"internalType":"uint256"}],"anonymous":false},{"type":"event","name":"Initialized","inputs":[{"name":"version","type":"uint64","indexed":false,"internalType":"uint64"}],"anonymous":false},{"type":"event","name":"OwnershipTransferred","inputs":[{"name":"previousOwner","type":"address","indexed":true,"internalType":"address"},{"name":"newOwner","type":"address","indexed":true,"internalType":"address"}],"anonymous":false},{"type":"event","name":"Paused","inputs":[{"name":"account","type":"address","indexed":false,"internalType":"address"}],"anonymous":false},{"type":"event","name":"Retired","inputs":[{"name":"amount","type":"uint256","indexed":false,"internalType":"uint256"},{"name":"beneficiary","type":"address","indexed":true,"internalType":"address"},{"name":"beneficiaryName","type":"string","indexed":false,"internalType":"string"},{"name":"message","type":"string","indexed":false,"internalType":"string"},{"name":"creditId","type":"string","indexed":true,"internalType":"string"},{"name":"account","type":"address","indexed":true,"internalType":"address"}],"anonymous":false},{"type":"event","name":"Transfer","inputs":[{"name":"from","type":"address","indexed":true,"internalType":"address"},{"name":"to","type":"address","indexed":true,"internalType":"address"},{"name":"value","type":"uint256","indexed":false,"internalType":"uint256"}],"anonymous":false},{"type":"event","name":"Unpaused","inputs":[{"name":"account","type":"address","indexed":false,"internalType":"address"}],"anonymous":false},{"type":"error","name":"ERC20InsufficientAllowance","inputs":[{"name":"spender","type":"address","internalType":"address"},{"name":"allowance","type":"uint256","internalType":"uint256"},{"name":"needed","type":"uint256","internalType":"uint256"}]},{"type":"error","name":"ERC20InsufficientBalance","inputs":[{"name":"sender","type":"address","internalType":"address"},{"name":"balance","type":"uint256","internalType":"uint256"},{"name":"needed","type":"uint256","internalType":"uint256"}]},{"type":"error","name":"ERC20InvalidApprover","inputs":[{"name":"approver","type":"address","internalType":"address"}]},{"type":"error","name":"ERC20InvalidReceiver","inputs":[{"name":"receiver","type":"address","internalType":"address"}]},{"type":"error","name":"ERC20InvalidSender","inputs":[{"name":"sender","type":"address","internalType":"address"}]},{"type":"error","name":"ERC20InvalidSpender","inputs":[{"name":"spender","type":"address","internalType":"address"}]},{"type":"error","name":"EnforcedPause","inputs":[]},{"type":"error","name":"ExpectedPause","inputs":[]},{"type":"error","name":"InvalidInitialization","inputs":[]},{"type":"error","name":"MaxLength","inputs":[]},{"type":"error","name":"NotInitializing","inputs":[]},{"type":"error","name":"OwnableInvalidOwner","inputs":[{"name":"owner","type":"address","internalType":"address"}]},{"type":"error","name":"OwnableUnauthorizedAccount","inputs":[{"name":"account","type":"address","internalType":"address"}]},{"type":"error","name":"ZeroAddress","inputs":[]},{"type":"error","name":"ZeroAmount","inputs":[]}],"bytecode":{"object":"0x6080604052348015600e575f5ffd5b5060156019565b60c9565b7ff0c57e16840df040f15088dc2f81fe391c3923bec73e23a9662efc9c229c6a00805468010000000000000000900460ff161560685760405163f92ee8a960e01b815260040160405180910390fd5b80546001600160401b039081161460c65780546001600160401b0319166001600160401b0390811782556040519081527fc7f505b2f371ae2175ee4913f4499e1f2633a7b5936321eed1cdaeb6115181d29060200160405180910390a15b50565b6113fa806100d65f395ff3fe608060405234801561000f575f5ffd5b5060043610610127575f3560e01c8063715018a6116100a9578063a9059cbb1161006e578063a9059cbb1461029f578063dd62ed3e146102b2578063e4f98d2b146102c5578063f2fde38b146102d8578063f399e22e146102eb575f5ffd5b8063715018a61461023a57806380ff7933146102425780638456cb59146102555780638da5cb5b1461025d57806395d89b4114610297575f5ffd5b80633f4ba83a116100ef5780633f4ba83a146101bf57806340c10f19146101c957806357d682c4146101dc5780635c975abb146101ef57806370a0823114610206575f5ffd5b806306fdde031461012b578063095ea7b31461014957806318160ddd1461016c57806323b872dd1461019d578063313ce567146101b0575b5f5ffd5b6101336102fe565b6040516101409190610ed1565b60405180910390f35b61015c610157366004610f21565b6103be565b6040519015158152602001610140565b7f52c63247e1f47db19d5ce0460030c497f067ca4cebf71ba98eeadabe20bace02545b604051908152602001610140565b61015c6101ab366004610f49565b6103d7565b60405160128152602001610140565b6101c76103f3565b005b6101c76101d7366004610f21565b610405565b6101c76101ea366004610f83565b610423565b5f5160206113a55f395f51905f525460ff1661015c565b61018f610214366004610fad565b6001600160a01b03165f9081525f5160206113855f395f51905f52602052604090205490565b6101c7610435565b6101c761025036600461100b565b610446565b6101c761045d565b7f9016d09d72d40fdae2fd8ceac6b6234c7706214fd39c1cd1e609a0528c199300546040516001600160a01b039091168152602001610140565b61013361046d565b61015c6102ad366004610f21565b6104ab565b61018f6102c0366004611094565b6104c5565b6101c76102d33660046110bc565b61050e565b6101c76102e6366004610fad565b610531565b6101c76102f9366004611155565b610573565b7f52c63247e1f47db19d5ce0460030c497f067ca4cebf71ba98eeadabe20bace0380546060915f5160206113855f395f51905f529161033c906111a4565b80601f0160208091040260200160405190810160405280929190818152602001828054610368906111a4565b80156103b35780601f1061038a576101008083540402835291602001916103b3565b820191905f5260205f20905b81548152906001019060200180831161039657829003601f168201915b505050505091505090565b5f336103cb8185856106fc565b60019150505b92915050565b5f6103e061070e565b6103eb84848461073e565b949350505050565b6103fb610761565b6104036107bc565b565b61040d610761565b61041561070e565b61041f828261081b565b5050565b61042b610761565b61041f818361084f565b61043d610761565b6104035f610883565b610455868686868686336108f3565b505050505050565b610465610761565b610403610a13565b7f52c63247e1f47db19d5ce0460030c497f067ca4cebf71ba98eeadabe20bace0480546060915f5160206113855f395f51905f529161033c906111a4565b5f6104b461070e565b6104be8383610a5b565b9392505050565b6001600160a01b039182165f9081527f52c63247e1f47db19d5ce0460030c497f067ca4cebf71ba98eeadabe20bace016020908152604080832093909416825291909152205490565b610519813389610a68565b610528878787878787876108f3565b50505050505050565b610539610761565b6001600160a01b03811661056757604051631e4fbdf760e01b81525f60048201526024015b60405180910390fd5b61057081610883565b50565b7ff0c57e16840df040f15088dc2f81fe391c3923bec73e23a9662efc9c229c6a008054600160401b810460ff16159067ffffffffffffffff165f811580156105b85750825b90505f8267ffffffffffffffff1660011480156105d45750303b155b9050811580156105e2575080155b156106005760405163f92ee8a960e01b815260040160405180910390fd5b845467ffffffffffffffff19166001178555831561062a57845460ff60401b1916600160401b1785555b61069b87878080601f0160208091040260200160405190810160405280939291908181526020018383808284375f9201919091525050604080516020601f8d018190048102820181019092528b815292508b91508a90819084018382808284375f92019190915250610acb92505050565b6106a3610add565b6106ac88610aed565b83156106f257845460ff60401b19168555604051600181527fc7f505b2f371ae2175ee4913f4499e1f2633a7b5936321eed1cdaeb6115181d29060200160405180910390a15b5050505050505050565b6107098383836001610afe565b505050565b5f5160206113a55f395f51905f525460ff16156104035760405163d93c066560e01b815260040160405180910390fd5b5f3361074b858285610a68565b610756858585610be2565b506001949350505050565b336107937f9016d09d72d40fdae2fd8ceac6b6234c7706214fd39c1cd1e609a0528c199300546001600160a01b031690565b6001600160a01b0316146104035760405163118cdaa760e01b815233600482015260240161055e565b6107c4610c3f565b5f5160206113a55f395f51905f52805460ff191681557f5db9ee0a495bf2e6ff9c91a7834c1ba4fdd244a5e8aa4e537bd38aeae4b073aa335b6040516001600160a01b03909116815260200160405180910390a150565b6001600160a01b0382166108445760405163ec442f0560e01b81525f600482015260240161055e565b61041f5f8383610c6e565b6001600160a01b03821661087857604051634b637e8f60e11b81525f600482015260240161055e565b61041f825f83610c6e565b7f9016d09d72d40fdae2fd8ceac6b6234c7706214fd39c1cd1e609a0528c19930080546001600160a01b031981166001600160a01b03848116918217845560405192169182907f8be0079c531659141344cd1fd0a4f28419497f9722a3daafe3b4186f6b6457e0905f90a3505050565b6108fb61070e565b61090487610da7565b61090d86610dc7565b61094e85858080601f0160208091040260200160405190810160405280939291908181526020018383808284375f9201919091525060409250610dee915050565b61099083838080601f0160208091040260200160405190810160405280939291908181526020018383808284375f920191909152506104009250610dee915050565b61099a818861084f565b806001600160a01b03166109ac61046d565b6040516109b991906111dc565b6040518091039020876001600160a01b03167f128f87a3924b6e5b4a8b7262caf2476d5ad6d1b725bfbf0eaa0b71183e3b57f48a89898989604051610a0295949392919061121a565b60405180910390a450505050505050565b610a1b61070e565b5f5160206113a55f395f51905f52805460ff191660011781557f62e78cea01bee320cd4e420270b5ea74000d11b0c9f74754ebdbfc544b05a258336107fd565b5f336103cb818585610be2565b5f610a7384846104c5565b90505f198114610ac55781811015610ab757604051637dc7a0d960e11b81526001600160a01b0384166004820152602481018290526044810183905260640161055e565b610ac584848484035f610afe565b50505050565b610ad3610e10565b61041f8282610e59565b610ae5610e10565b610403610ea9565b610af5610e10565b61057081610ec9565b5f5160206113855f395f51905f526001600160a01b038516610b355760405163e602df0560e01b81525f600482015260240161055e565b6001600160a01b038416610b5e57604051634a1406b160e11b81525f600482015260240161055e565b6001600160a01b038086165f90815260018301602090815260408083209388168352929052208390558115610bdb57836001600160a01b0316856001600160a01b03167f8c5be1e5ebec7d5bd14f71427d1e84f3dd0314c0f7b2291e5b200ac8c7c3b92585604051610bd291815260200190565b60405180910390a35b5050505050565b6001600160a01b038316610c0b57604051634b637e8f60e11b81525f600482015260240161055e565b6001600160a01b038216610c345760405163ec442f0560e01b81525f600482015260240161055e565b610709838383610c6e565b5f5160206113a55f395f51905f525460ff1661040357604051638dfc202b60e01b815260040160405180910390fd5b5f5160206113855f395f51905f526001600160a01b038416610ca85781816002015f828254610c9d9190611252565b90915550610d189050565b6001600160a01b0384165f9081526020829052604090205482811015610cfa5760405163391434e360e21b81526001600160a01b0386166004820152602481018290526044810184905260640161055e565b6001600160a01b0385165f9081526020839052604090209083900390555b6001600160a01b038316610d36576002810180548390039055610d54565b6001600160a01b0383165f9081526020829052604090208054830190555b826001600160a01b0316846001600160a01b03167fddf252ad1be2c89b69c2b068fc378daa952ba7f163c4a11628f55a4df523b3ef84604051610d9991815260200190565b60405180910390a350505050565b805f0361057057604051631f2a200560e01b815260040160405180910390fd5b6001600160a01b0381166105705760405163d92e233d60e01b815260040160405180910390fd5b808251111561041f57604051631dfb275f60e21b815260040160405180910390fd5b7ff0c57e16840df040f15088dc2f81fe391c3923bec73e23a9662efc9c229c6a0054600160401b900460ff1661040357604051631afcd79f60e31b815260040160405180910390fd5b610e61610e10565b5f5160206113855f395f51905f527f52c63247e1f47db19d5ce0460030c497f067ca4cebf71ba98eeadabe20bace03610e9a84826112c9565b5060048101610ac583826112c9565b610eb1610e10565b5f5160206113a55f395f51905f52805460ff19169055565b610539610e10565b602081525f82518060208401528060208501604085015e5f604082850101526040601f19601f83011684010191505092915050565b80356001600160a01b0381168114610f1c575f5ffd5b919050565b5f5f60408385031215610f32575f5ffd5b610f3b83610f06565b946020939093013593505050565b5f5f5f60608486031215610f5b575f5ffd5b610f6484610f06565b9250610f7260208501610f06565b929592945050506040919091013590565b5f5f60408385031215610f94575f5ffd5b82359150610fa460208401610f06565b90509250929050565b5f60208284031215610fbd575f5ffd5b6104be82610f06565b5f5f83601f840112610fd6575f5ffd5b50813567ffffffffffffffff811115610fed575f5ffd5b602083019150836020828501011115611004575f5ffd5b9250929050565b5f5f5f5f5f5f60808789031215611020575f5ffd5b8635955061103060208801610f06565b9450604087013567ffffffffffffffff81111561104b575f5ffd5b61105789828a01610fc6565b909550935050606087013567ffffffffffffffff811115611076575f5ffd5b61108289828a01610fc6565b979a9699509497509295939492505050565b5f5f604083850312156110a5575f5ffd5b6110ae83610f06565b9150610fa460208401610f06565b5f5f5f5f5f5f5f60a0888a0312156110d2575f5ffd5b873596506110e260208901610f06565b9550604088013567ffffffffffffffff8111156110fd575f5ffd5b6111098a828b01610fc6565b909650945050606088013567ffffffffffffffff811115611128575f5ffd5b6111348a828b01610fc6565b9094509250611147905060808901610f06565b905092959891949750929550565b5f5f5f60408486031215611167575f5ffd5b61117084610f06565b9250602084013567ffffffffffffffff81111561118b575f5ffd5b61119786828701610fc6565b9497909650939450505050565b600181811c908216806111b857607f821691505b6020821081036111d657634e487b7160e01b5f52602260045260245ffd5b50919050565b5f82518060208501845e5f920191825250919050565b81835281816020850137505f828201602090810191909152601f909101601f19169091010190565b858152606060208201525f6112336060830186886111f2565b82810360408401526112468185876111f2565b98975050505050505050565b808201808211156103d157634e487b7160e01b5f52601160045260245ffd5b634e487b7160e01b5f52604160045260245ffd5b601f82111561070957805f5260205f20601f840160051c810160208510156112aa5750805b601f840160051c820191505b81811015610bdb575f81556001016112b6565b815167ffffffffffffffff8111156112e3576112e3611271565b6112f7816112f184546111a4565b84611285565b6020601f821160018114611329575f83156113125750848201515b5f19600385901b1c1916600184901b178455610bdb565b5f84815260208120601f198516915b828110156113585787850151825560209485019460019092019101611338565b508482101561137557868401515f19600387901b60f8161c191681555b50505050600190811b0190555056fe52c63247e1f47db19d5ce0460030c497f067ca4cebf71ba98eeadabe20bace00cd5ed15c6e187e77e9aee88184c21f4f2182ab5827cb3b7e07fbedcd63f03300a264697066735822122016c0458f92d551bbcdfc455f5f031fc21e8edfb90f82c3312554b1d95d0eaf7564736f6c634300081b0033","linkReferences":{}},"methodIdentifiers":{"allowance(address,address)":"dd62ed3e","approve(address,uint256)":"095ea7b3","balanceOf(address)":"70a08231","cancel(uint256,address)":"57d682c4","decimals()":"313ce567","initialize(address,string)":"f399e22e","mint(address,uint256)":"40c10f19","name()":"06fdde03","owner()":"8da5cb5b","pause()":"8456cb59","paused()":"5c975abb","renounceOwnership()":"715018a6","retire(uint256,address,string,string)":"80ff7933","retireFrom(uint256,address,string,string,address)":"e4f98d2b","symbol()":"95d89b41","totalSupply()":"18160ddd","transfer(address,uint256)":"a9059cbb","transferFrom(address,address,uint256)":"23b872dd","transferOwnership(address)":"f2fde38b","unpause()":"3f4ba83a"},"storageLayout":{"storage":[],"types":{}},"id":43}